:020000040800F2
:10000000700A00204D020008797B0008995700080B
:10001000455E0008351800088197000800000000C0
:100020000000000000000000000000009D8A0008A1
:10003000EB19000800000000A57F0008F98F0008F8
:1000400071020008710200087102000871020008C4
:1000500071020008710200087102000871020008B4
:1000600071020008710200087102000871020008A4
:100070007102000871020008710200087102000894
:100080007102000871020008B11600087102000830
:10009000391800087102000849180008ED19000815
:1000A0007102000871020008710200087102000864
:1000B0007102000815900008710200087102000822
:1000C0007102000871020008710200087102000844
:1000D00071020008319700087102000871020008DF
:1000E0007102000871020008710200087102000824
:1000F0007102000871020008710200087102000814
:100100007102000871020008710200087102000803
:1001100071020008710200082590000871020008B1
:10012000D11800087102000871020008710200086D
:1001300071020008710200087102000871020008D3
:1001400071020008710200087102000871020008C3
:1001500071020008710200087102000871020008B3
:1001600071020008710200087102000871020008A3
:10017000710200087102000871020008000000000E
:10018000710200087102000800F002F800F04FF858
:100190000AA090E8000C82448344AAF10107DA45E2
:1001A00001D100F044F8AFF2090EBAE80F0013F0E5
:1001B000010F18BFFB1A43F00103184760AB0000A2
:1001C00080AB0000103A24BF78C878C1FAD8520733
:1001D00024BF30C830C144BF04680C6070470000C1
:1001E0000023002400250026103A28BF78C1FBD840
:1001F000520728BF30C148BF0B60704766290AF01C
:10020000AB84752900F0F680732900F0D0840020BB
:1002100070471FB50AF021FC00F0E0FC040000204C
:1002200000210AF057FBE0601FBD10B510BD00F0C3
:10023000F5FD1146FFF7EDFF0AF038F900F013FE67
:1002400003B4FFF7F2FF03BC09F0E1FF0C480168BB
:1002500041F4700101600B4880470B480047FEE7FE
:10026000FEE7FEE7FEE7FEE7FEE7FEE7FEE7FEE766
:10027000FEE7000005480649044A064B70470000A7
:1002800088ED00E001900008890100087006002058
:10029000700A002070060020704753EA020C00F03C
:1002A00069802DE9F04B4FF00006002B1FBFB3FA19
:1002B00083F503FA05F424FA05F65E4012BF1643EF
:1002C000B2FA82F502FA05F4C5F120051EBF22FA42
:1002D00005FC44EA0C04203556EA044C4FEA144469
:1002E00018BF641C4FF000084FF00009904271EBFA
:1002F000030C39D3002919BFB1FA81F701FA07F6C7
:10030000B0FA80F700FA07F6C7F120071EBF20FAFF
:1003100007FC46EA0C062037B6FBF4FCA7EB050702
:10032000103F07F01F0BCBF120060CFA0BFB2CFA49
:1003300006F644BFB3460026202FA4BF5E464FF00A
:10034000000B5BEA060C08BF4FF0010B19EB0B0921
:10035000ABFB027C48EB0608C01B06FB02CC0BFB88
:1003600003CC71EB0C01C1E70B46024641464846FF
:10037000BDE8F08B13B54FF000004FF00001AFF374
:100380000080BDE81C4070470FB4044910B503AAB3
:10039000029800F011FC10BC5DF814FB080000206E
:1003A00070B50C460546012A05D02878800600D590
:1003B000EA69002302E0012305E05B1C934202D2BC
:1003C000E05C0028F9D1A869E618C01AA861286A7B
:1003D000184428622846AFF3008004E0D5E90121E3
:1003E00014F8010B9047B442F8D32846AFF30080CD
:1003F00070BD00002DE9F041064600241068752903
:10040000314616A510D0AFF30080002802DA404232
:1004100013A507E031688A0701D512A502E0490754
:1004200004D511A5012401E0AFF3008000210A22C8
:1004300006F1240709E0B0FBF2FCB0FBF2F302FB8B
:100440001C00303078541846491C0028F3D123464C
:100450002A463046BDE8F04100F02FB90000000008
:100460002D0000002B000000200000002DE9F047C7
:100470004FF0000A89460446C0F820A02046E168F3
:100480008847002876D0252806D0D4E90121904756
:10049000206A401C2062F1E7E16820460026884778
:1004A000C4F81CA005460027C4F818A02A2D09D0BE
:1004B000284609F0A5FE38B304EB8708303DC8F89C
:1004C000185019E059F8041B204604EB870291618B
:1004D000E1688847012F054618D1E069002820DA35
:1004E00026F020061DE0D8F8180000EB800005EB90
:1004F00040003038C8F818002046E16888470546B3
:1005000009F07EFE0028EED1012F0AD02E2D08D151
:100510002046E16888477F1C0546022F46F02006EA
:10052000C4DBA069002803DA404246F00106A0615E
:10053000F00701D026F010066C2D0AD0682D08D0E7
:100540004C2D39D06A2D35D0742D35D07A2D33D03D
:1005500016E0E1682F4620468847B84205460AD192
:100560006C2F27D04FF48060E1680643204688470F
:10057000054605E027E06C2F1AD04FF48070064343
:100580000DB3A5F14100192802D8203546F40066C4
:100590004A462946204626604E46FFF72FFE80B188
:1005A00001280BD0F61D26F0070000F1080965E7C9
:1005B0004020E4E78020D7E70020D5E706F10409D2
:1005C0005CE7284661E7206ABDE8F0874FF000024B
:1005D00000B5134694469646203922BFA0E80C5039
:1005E000A0E80C50B1F12001BFF4F7AF090728BF14
:1005F000A0E80C5048BF0CC05DF804EB890028BF90
:1006000040F8042B08BF704748BF20F8022B11F0B8
:10061000804F18BF00F8012B704700004FF0013CDD
:1006200050F8042B51F8043B9A4221D1A2EB0C0361
:10063000934313EACC1317D150F8042B51F8043B21
:100640009A4215D1A2EB0C03934313EACC130BD1BE
:1006500050F8042B51F8043B9A4209D1A2EB0C0349
:10066000934313EACC13DBD04FF00000704700BF78
:10067000D01A01BAB1FA81F101F0180122FA01F0A1
:10068000CB40C1F12001DBB2C0B2C01A2CFA01F399
:10069000D11A914311EAC311E6D1704770477047F0
:1006A0007047704710B500F09DFA006810BD10B596
:1006B000044600F097FA046010BD2DE9F0470D469E
:1006C00099469246044600F124080168880604D53C
:1006D000E06921F01001216000E00120A84201DD65
:1006E000471B00E00027A1697A1902EB0900081AEC
:1006F000A0612078C00602D42046AFF30080002617
:1007000008E0D4E901211AF806009047206A401C4D
:10071000761C20624E45F4DB2078C0060AD52046C0
:10072000AFF3008006E0D4E9012130209047206A31
:10073000401C2062381EA7F10107F4DC07E0D4E971
:10074000012118F805009047206A401C2062281EED
:10075000A5F10105F3DC2046AFF300802078000608
:1007600002D50220BDE8F0870120FBE770472DE9A4
:10077000FF4F0C461E464FF0FF378BB0D2E9000109
:10078000DDF860800A908A46C1F30A5505B93D46F6
:10079000002108464FF00000BAF1000F00F44000BD
:1007A00005DA00EB80004FF4400101EA50004FEA07
:1007B0009059B9F1010F00DDB9460A9850EA4A0094
:1007C0000ED044F61050A5F2FF3545432F14B8F172
:1007D000000F1ED07542291E1EDDC9F100021CE06B
:1007E000B8F1010F4FF0000001D0302103E0F243D7
:1007F00005E02154401CB042FBDB304600220021C2
:1008000021540B99C1F80880C1E900200FB0BDE860
:10081000F08FBD1B6D1CDEE74A4600DA694206A870
:1008200000F082FA06AB93E8070003AB83E8070009
:1008300050460A9900F020FB8DE80700A0F5005013
:100840001F3800900398002D0ADD42F21F014A462E
:100850000844002303A90390684600F089FD09E0DD
:10086000A0F500504A461F38002303A903906846AC
:1008700000F093FD8DE807000004000C03D04FF05A
:10088000FF30410800E01046B8F1000F03D000220D
:10089000009215461EE0751E05D400F0A7F930320F
:1008A00062556D1EF9D5B3460122084302D00022DD
:1008B0007F1C04E02078302801D100227F1E002A0E
:1008C000099784D01DE0112D07DA00F08FF930323E
:1008D00062556D1C50EA0102F5D1084302D0009820
:1008E000C8B10EE00021681E05E0235C625C635421
:1008F0002254401E491C8142F7DBAB46A81B401E18
:100900000990002004F80B000B98099AC0F80880A1
:10091000C0E9002B7AE711264FF0000857E72DE9D0
:10092000F04F88460446D21D22F0070191B0D1E96C
:100930000001CDE90A0108F025FF02460B98C00F1F
:1009400001D02D2007E02068810701D52B2002E08F
:10095000202101EAC000032A099001D0072A05DB03
:1009600003464146204600F09FF90BE120788006BF
:1009700001D5E06900E00620B8F1650F814606D098
:10098000B8F1660F18D0B8F1670F70D131E00020D0
:10099000B9F1110F009001DB112301E009F101030E
:1009A0000AAA01A90CA8FFF7E2FEDDE90C700026F7
:1009B00009F10105834647E001204B4600904FF0C6
:1009C00000470AAA01A90CA8FFF7D1FEDDE90DB086
:1009D0000C995D46002610B909F101000D18B9EB1C
:1009E000050003D4C0F1FF3609F10105A5EB0900AC
:1009F0002BE0B9F1010F01DA4FF001090020B9F144
:100A0000110F0090484601DD112300E003460AAAB9
:100A100001A90CA8FFF7ABFEDDE90C704D460026DE
:100A20008346207800070AD4AB4500DA5D4601A86A
:100A3000012D04DD411911F8011C302907D04F4563
:100A400002DA17F1040F04DA012082460FE06D1E6E
:100A5000EEE7002F02DCED1B3E4403E0781CA842C9
:100A600000DD7D1CB81B00F1010A4FF00047207823
:100A7000000703D4AA4501DB4FF0FF3A0021B7F18C
:100A8000004F0DF143088DF8431024D002202B2392
:100A9000002F01DA7F422D230A21021EA0F101005E
:100AA00000DC5FB197FBF1FC97FBF1F201FB1C7CD2
:100AB00017460CF1300C08F801CDEEE7A8F1010063
:100AC00003702188090501D5452100E06521A0F1C9
:100AD000010800F8011C09980FA9A1EB0807FF1DE8
:100AE00000B10120411901EBEA70A1693844081AEC
:100AF000401EA0612078C00602D42046AFF30080DB
:100B0000099828B1D4E901219047206A401C20624D
:100B10002078C00622D52046AFF300801EE0002ECC
:100B200004DBB34502DD01A8805D00E03020D4E99C
:100B300001219047206A401C2062761CAAF1010026
:100B40005FEA000A0AD100F049F8C0680168405C19
:100B5000D4E901219047206A401C2062281EA5F19B
:100B60000105DCDC07E0D4E9012118F8010B90470E
:100B7000206A401C2062381EA7F10107F3DC2046E2
:100B8000AFF30080032011B041E610B5436913B103
:100B9000AFF3008001E0FFF703FC012010BD1278E5
:100BA00000F124010A7000224A700122EDE7116869
:100BB0004FF0FF32E9E70000074B70B50D467B446C
:100BC00000F05FF80446284600F020F910B14FF01D
:100BD000FF3070BD204670BDE396000000487047AE
:100BE00030060020004870471006002030B5B0F1F4
:100BF0000A024FEA900E71F100034EEA817EB0EBDB
:100C00000E0061EB91014FEA101E4EEA017E10EBDF
:100C10000E0041EB11114FEA102E4EEA016E10EB5F
:100C20000E0041EB11214FEA104E4EEA014E10EB3F
:100C30000E0041EB1141401841F100014FEAD00094
:100C400040EA41704FEAD10110EB80054FEA810480
:100C500044EA907444EB01046D1944EB0404521B04
:100C6000A3414FF0000348BF0A3200D530BD401CFD
:100C700041F1000130BD000001694A1C02610878A1
:100C8000704700B58FB0CDE90131002105910549CC
:100C90007944CDE9031011466846FFF7E7FB0FB032
:100CA00000BD0000E5FFFFFF2DE9F0411F460446AF
:100CB00003260168072A01F4006004DB08B116A5C9
:100CC00005E016A503E008B115A500E015A521F083
:100CD00010002060A069C01EA0610FB1401EA0617D
:100CE0002046AFF300804FB1D4E901213846904748
:100CF000206A401C2062C01C206206E0206AFAE7DD
:100D0000D4E9012115F8010B9047761EF8D2204650
:100D1000AFF30080BDE8F0814E414E006E616E0081
:100D2000494E4600696E66002DE9F0478146164639
:100D30008AB0354878440DC88DE80D0032487844B3
:100D4000801C03AC0DC884E80D0041F69B300844BC
:100D5000372190FBF1F290FBF1F5A5F1800501FB45
:100D600012041B3C02D56442012000E00020DFF8A1
:100D700098A080460027FA44AAF1BE0A0EE0E007D8
:100D80000AD03246684607EB470101230AEB81018E
:100D900000F003FB8DE8070064107F1C002CEED1EF
:100DA000194F7F44AE3F19E0E80715D007EB041058
:100DB0000DF1180A90E80E008AE80E00C068F042B3
:100DC00001D1981908903246012306A903A800F022
:100DD000E4FA03AB83E807006D10641C002DE3D137
:100DE0004FF0010332466946B8F1000F03A802D064
:100DF00000F0BEFA01E000F0D0FAC9E90001C9F83C
:100E000008200AB0BDE8F087549F0000007B00F086
:100E10008000704700487047100600207546FFF7B5
:100E2000F9FFAE4605006946534620F007008546A7
:100E300018B020B5FFF71EFABDE820404FF00006BD
:100E40004FF000074FF000084FF0000B21F00701B2
:100E5000AC46ACE8C009ACE8C009ACE8C009ACE8F5
:100E6000C0098D46704710B50446AFF30080204698
:100E7000BDE81040FFF7E4B95FEA400C08BF91F00D
:100E8000000F4FEA8C234FEAC12243EA51514FEA47
:100E90001C5018BF00F5F0404FEA300018BF41F079
:100EA00000415FEA6C5C00F02980BCF1FF3F08BFA5
:100EB00040F080407047130C06BF12044FF0100C36
:100EC0004FF0000C130E04BF12020CF1080C130FAC
:100ED00004BF12010CF1040C930F04BF92000CF13B
:100EE000020CD30F04BF52000CF1010C11464FF05D
:100EF0000002A0F11F00A0EB0C00704711F0004FA2
:100F000008BF704731F000413FF4D5AF0B0C06BF6E
:100F100009044FF0100C4FF0000C0B0E04BF090237
:100F20000CF1080C0B0F04BF09010CF1040C8B0F22
:100F300004BF89000CF1020CCB0F04BF49000CF177
:100F4000010CCCF12003A0EB0C0022FA03F302FA0F
:100F50000CF241EA030100F10100704720F07F4CE0
:100F600080EA030023F07F47ACEB070303F57C53D3
:100F700000F0004003F1FF032DE980494FEA154BD3
:100F800009B44FEA144325EA0B4E24EA03480FF252
:100F9000042606EB132749083E785FEA320203FB7A
:100FA0000667C7F5000707FB06F64FEA54374FEA16
:100FB000D64606F1020607FB066CCCF1005C4FEA50
:100FC0001C472CEA074C07FB06F40CFB06F504EB68
:100FD00015464FEA961634BF00204FF000404FEA06
:100FE000D13706FB07FC4FEA1C4C0CFB0BF7D21B5E
:100FF00003FB0CF761EB07010CFB0EF7B0EB0740AE
:1010000072EB17420CFB08F734BFA2EB0742B2EBBE
:10101000074261EB17414FEA0C444FEA910706FB88
:1010200007FC4FEA1C4C0CFB0BF7B0EBC74072EB14
:10103000573203FB0CF734BFA2EBC742B2EBC742F7
:1010400061EB57310CFB0EF7B0EBC70072EB577238
:101050000CFB08F734BFA2EBC702B2EBC70261EB8F
:101060005771039F4FEA816141EA921104EBCC046E
:101070004FEAD1374FEA826206FB07FC42EA901240
:101080004FEA80604FEA1C4C0CFB0BF7D21B03FBB2
:101090000CF761EB07010CFB0EF7B0EB074072EBAE
:1010A00017420CFB08F734BFA2EB0742B2EB074232
:1010B00061EB17414FEA8C554FEA910704EB9C24F2
:1010C00006FB07FC4FEA1C4C0CFB0BF7B0EBC740D0
:1010D00072EB573203FB0CF734BFA2EBC742B2EB03
:1010E000C74261EB57310CFB0EF7B0EBC70072EB58
:1010F00057720CFB08F734BFA2EBC702B2EBC70272
:1011000061EB577115EB4C254FEA816141EA921171
:101110004FEA82624FEAD13742EA901206FB07FC9F
:1011200044F100044FEA80604FEA1C4C0CFB0BF7C3
:10113000D21B03FB0CF761EB07010CFB0EF7B0EBC6
:10114000074072EB17420CFB08F734BFA2EB0742D3
:10115000B2EB074261EB174115EB1C154FEA8131E9
:1011600041EA92414FEA823242EA90424FEA8030AD
:101170004FEA0C7644F1000448EA03434EEA0B4878
:101180004FF0000EB2EB080C71EB030724BF624670
:1011900039464EEB0E0E4FF0000B001852414941FC
:1011A0004BEB0B0BB2EB080C71EB03077BF1000B65
:1011B00024BF624639464EEB0E0E4FF0000B00186E
:1011C000524149414BEB0B0BB2EB080C71EB03079F
:1011D0007BF1000B24BF624639464EEB0E0E51EAFE
:1011E000020718BF46F0010616EB0E7655F1000215
:1011F00054F1000103D5BDE88901BDE80088BDE8D0
:101200008901BDE80048B619524141EB0101A3F143
:101210000103704780807F7E7D7C7B7A797877764A
:1012200076757473727171706F6E6E6D6C6C6B6AC3
:101230006A69686867666665646463636261616061
:10124000605F5F5E5E5D5D5C5C5B5B5A5A595958DE
:101250005857575656555555545453535252525148
:10126000515050504F4F4F4E4E4D4D4D4C4C4C4B9E
:101270004B4B4A4A4A4949494848484747474746E5
:101280004646454545444444444343434342424221
:1012900042414141002B9C4630D477002BD01CB5F5
:1012A0004FEA370703B44FF010004FF01001BAF1C6
:1012B000000F06D0BCF1000FDCBF40F0080040F08A
:1012C00008014FF000000FBCBDE810400BF1010B0E
:1012D000BBF1010F08BF5FEA170722BF12F101023D
:1012E00011F101014FF0004143F1000300F0004013
:1012F00043EA00007047F9D35708D0E746EA0646AC
:1013000013F1400F4FEA16461FDD13F1200FDFBF28
:1013100016430A46002120335B42BED0C3F12007AA
:1013200046EA064602FA07F74FEA164646EA070675
:10133000C3F1200722FA03F201FA07F721FA03F1B9
:101340004FF0000342EA0702A7E746EA020646EA30
:1013500006464FEA164646EA0106BCBF46EA06467E
:10136000360C4FF000034FF000024FF0000194E7FD
:101370002DE9804C9A46934670B491E8380007C82E
:1013800031EA400C48BF34EA430C03D5FFF7E6FDD1
:10139000FFF780FFF0BCBDE8008C2DE9804C9A4639
:1013A000934670B491E8380007C810F0804F08BF2A
:1013B00013F0804F03D100F005F8FFF76BFFF0BC8E
:1013C000BDE8008C20F07F4780EA030023F07F4CCB
:1013D00007EB0C03A3F57C5300F00040A3F1FE03E0
:1013E00092F0000F00F0B38095F0000F00F07780CE
:1013F0002DE901494FEA11404FEA144621EA00481D
:1014000000FB06FC24EA064708FB06F607FB08F883
:1014100000FB07F718EB06484CEB164C4FEA124B53
:1014200018EB07484FEA15464CEB174022EA0B4EE3
:101430000BFB06FC25EA06470EFB06F607FB0EFE35
:101440000BFB07F71EEB064E4CEB164C4FF000065D
:101450001EEB074E4CEB174B18EB0B0840F100004E
:1014600018EB0E0B58EB000840F100008F1A4FF0FC
:1014700000013CBFC943661B14BFB5EB040C00213F
:101480003CBFC943F61B4FEA17444EEA8E0E27EACB
:1014900004454FEA1C4704FB07622CEA074C05FB96
:1014A00007F70CFB05F604FB0CFC16EB074642EBBA
:1014B000174216EB0C4642EB1C421BEB060658EBA0
:1014C0000202414146EA9E0601D5BDE80189B619EE
:1014D000524141EB0101A3F10103BDE801894FEA4B
:1014E00014454FEA114724EA054621EA074C05FB5B
:1014F00007F406FB07F70CFB06F105FB0CFC11EBF0
:10150000074144EB17444FEA124711EB0C4144EBFF
:101510001C4422EA074C05FB07F206FB07F70CFB0D
:1015200006F605FB0CFC16EB074642EB174216EBE2
:101530000C4642EB1C456A1854F1000148BF704745
:10154000B619524141EB0101A3F10103704795F037
:10155000000F37D04FEA11424FEA144721EA024602
:1015600024EA074C02FB07F106FB07F70CFB06F425
:1015700002FB0CFC14EB074441EB17414FEA154703
:1015800014EB0C4441EB1C4125EA074C02FB07F528
:1015900006FB07F70CFB06F602FB0CFC16EB0746F6
:1015A00045EB174516EB0C4645EB1C42121951F161
:1015B000000148BF7047B619524141EB0101A3F148
:1015C000010370474FEA14454FEA114724EA0546E4
:1015D00021EA074C05FB07F106FB07F70CFB06F2B7
:1015E0004FF0000605FB0CFC12EB074241EB1741E4
:1015F00012EB0C4251EB1C4148BF7047921841EB73
:101600000101A3F10103704770B50546AC6B206C76
:1016100000F0500050BB206C40F400702064206843
:10162000806800F04050E8B9207ED8B92068C06AD0
:1016300000F4700020B12068806800F4806088B9F0
:101640002068406820F0200021684860206C20F469
:1016500080702064206C00F4805018B9206C40F039
:1016600001002064204601F0DDF80BE0206C00F062
:10167000100018B1204601F0D7F803E0A06BC16C50
:101680002846884770BD70B50546AC6B4020206485
:10169000606C40F004006064204601F0C5F870BD45
:1016A00070B50446A56B284601F0BDF870BD00007A
:1016B00010B5054801F0B9F8044801F0B6F804483F
:1016C00001F0B3F810BD0000080300205003002013
:1016D0009803002055494A6822F440324A604A681B
:1016E00043681A434A600268526822F480720368B1
:1016F0005A6002685368026943EA022203685A602A
:101700000268526822F0407203685A6002685268A8
:1017100083681A4303685A600268926822F4006280
:1017200003689A6002689268C3681A4303689A6003
:101730003F4B826A9A4218D00268926822F0706227
:1017400003689A6002689268836A1A4303689A6021
:101750000268926822F0405203689A6002689268B8
:10176000C36A1A4303689A600BE00268926822F029
:10177000706203689A600268926822F040520368BF
:101780009A600268926822F0020203689A60026816
:101790009368027E43EA420203689A602022125C48
:1017A000A2B10268526842F4006203685A6002689B
:1017B000526822F4604203685A6002685368426AC1
:1017C000521E43EA423203685A6005E002685268DA
:1017D00022F4006203685A600268D26A22F470023E
:1017E0000368DA620268D36A828B521E43EA0252AD
:1017F0000368DA620268926822F4007203689A60F1
:101800000268936890F8302043EA422203689A60A5
:101810000268926822F4806203689A6002689368A2
:10182000426943EA822203689A60704700230140BC
:101830000100000F00BFFEE710B5024801F014FCE4
:1018400010BD0000C805002010B5024801F00CFCD6
:1018500010BD0000C805002090ED000A81ED000ACF
:1018600090ED000AD0ED010AB0EE001A01EE200A58
:10187000DFED030A20EE200A81ED010A7047000027
:101880003ACD133F10B5142000280FDB4109890021
:1018900001F1E021D1F8001100F01F0301229A406C
:1018A000114009B1012102E0002100E000210C46B5
:1018B000142002F095FA044800780449087014B125
:1018C000142002F0AFFA10BD040100200501002031
:1018D00010B5024801F0FAFE10BD0000E003002040
:1018E0000146087810381823B0FBF3F20848805CF2
:1018F000C865032A05D908686FF30900001D8865CB
:1019000003E008686FF309008865886D7047000080
:1019100074AB0008014600208A6A8B69CBB932B1EA
:10192000012A0DD0022A03D0032A10D10EE000BFF5
:10193000CB6A03F08073B3F1807F00D1012007E010
:10194000CB6AB3F1C07F00D1012001E000E000BF0D
:1019500034E08B69B3F5005F1AD132B1012A07D0A8
:10196000022A03D0032A11D10AE000BF01200EE0B1
:10197000CB6A03F08073B3F1807F00D1012006E0D1
:10198000CB6AB3F1C07F00D1012000E000BF15E0B9
:1019900032B1012A05D0022A04D0032A0CD103E077
:1019A00000BF00BF012008E0CB6A03F08073B3F1F1
:1019B000807F00D1012000E000BF00BF704730B53C
:1019C0000468246824F4802405682C60046863603B
:1019D0008468402C04D10468A2600468E16003E0DC
:1019E0000468A1600468E26030BD704710B5402013
:1019F00002F080F810BD000000B500F0BBF81749F8
:101A00000968401A00EE900AB8EEE01A9FED142A19
:101A1000C1EE021AB0EE001A21EE811ADFED111AA2
:101A200021EE211AB0EE410AB5EEC00AF1EE10FA2D
:101A300006D29FED0D1A30EE011AB0EE410A0CE00D
:101A40009FED091AB4EEC10AF1EE10FA05DB9FED25
:101A5000061A30EE411AB0EE410A00BD40000020E7
:101A600000007A45DB0F4940DB0FC94000B500F0AC
:101A700081F802460A480068111AB1F5FA6F02DDD2
:101A8000A1F57A6104E011F5FA6F01DA01F57A61E6
:101A9000044800680844034B18600148026000BD18
:101AA000380000203C00002010B52DED028B0446CC
:101AB00000F060F800EE100AB8EEC00A9FED281A98
:101AC000C0EE010AB0EE000A20EE800ADFED250A22
:101AD00020EE200AF0EE408AF1EE000A68EEA00A3D
:101AE000B0EE600ADFED200A08F0CCF8B0EE408AD4
:101AF000B5EEC08AF1EE10FA05D29FED1B0A38EE62
:101B0000000AB0EE408A012C02D1184880ED008A0C
:101B1000164890ED000A38EE400AB0EE408AB5EE65
:101B2000C08AF1EE10FA06D29FED0F0A38EE000AD5
:101B3000B0EE408A0CE09FED0C0AB4EEC08AF1EEE4
:101B400010FA05DB9FED080A38EE400AB0EE408A35
:101B5000074880ED008A90ED000ABDEC028B10BDB5
:101B600000007A45DB0F4940DB0FC94048000020E8
:101B70003400002001480068406A7047C00200201D
:101B800000B58FB000BF002000904848006840F0CA
:101B90000400464908600846006800F00400009010
:101BA00000BF00BF00BF002000900846006840F062
:101BB000100008600846006800F01000009000BFA8
:101BC00000BF00BF0020009038481430006840F487
:101BD00080303649143108600846006800F48030CF
:101BE000009000BF00BF00BF00200090081F0068E9
:101BF00040F00200091F08600846006800F002007B
:101C0000009000BF00BF14210AA8FEF7DFFCC0202F
:101C10000A9002200B900E9000200C900D900AA9C3
:101C2000234801F075FF40200A9022480B900220C3
:101C30000C900AA9204801F06BFF20482049086059
:101C400000211F4881610161816040F69F71C16080
:101C500000201B494860002119484161242101A846
:101C6000FEF7B4FC03200190002005900290049040
:101C70000120039000200990069008900120079011
:101C800001A90F4802F0C8FE002202211D2002F027
:101C9000D9F81D2002F0C6F800220221172002F018
:101CA000D1F8172002F0BEF80FB000BD3038024066
:101CB0000008024000001110001002400004004023
:101CC000C002002000B5FFF797FEF0EE403A26482C
:101CD00090ED000A33EEC00AF0EE402A9FED230A91
:101CE000F4EEC02AF1EE10FA06DD9FED210A32EE85
:101CF000C00AF0EE402A0CE09FED1E0AF4EEC02A66
:101D0000F1EE10FA05D29FED1A0A32EE800AF0EEDB
:101D1000402A9FED190A82EE803A1848007801287F
:101D200006D1174880ED003A0020144908700DE0F4
:101D30009FED140A23EE000A1348D0ED000A9FED30
:101D4000131A00EE810A0E4880ED000A0C4890ED4F
:101D5000000A0D4880ED000A0348C0ED003A08482B
:101D600090ED000A00BD000044000020DB0F494058
:101D7000DB0FC940DB0F49C00AD7A33B5800002046
:101D800050000020CDCC4C3E54000020CDCC4C3F28
:101D900010B50021064802F0A5FE0421044802F017
:101DA000A1FE03480068406A0249086010BD0000B7
:101DB000C00200203800002001200A4908759FED6C
:101DC0000A0A084680ED010A9FED070A80ED000A25
:101DD0009FED060A80ED020AB3EE080A80ED040AC0
:101DE00070470000140500200000000000408346FA
:101DF00010B52DED048BB0EE409A634890ED000ACB
:101E0000DFED620A60EE200A9FED611A80EE810A22
:101E1000DFED600A80EE201A5F4880ED001A5A4814
:101E200090ED010ADFED590A60EE200A9FED581A85
:101E300080EE810ADFED570A80EE201A564880EDC9
:101E4000011A514890ED020ADFED500A60EE200AB7
:101E50009FED4F1A80EE810ADFED4E0A80EE201AC8
:101E60004D4880ED021A05F0A1F94C48007F18B9E1
:101E700004F0F6FE072802D1BDEC048B10BD4848E3
:101E800080ED039AD0ED030AB0EE600A454807F0F2
:101E90003BFA45494048FFF7DFFC06F051FA40485D
:101EA000D0ED030AB0EE600A40493F4806F058F80A
:101EB0003B4890ED040ADFED3E0A20EE208A3D48C3
:101EC00080ED0A8AB1EE480A80ED0B0A344890EDA5
:101ED000010A384880ED070A3448D0ED000AB0EE18
:101EE000600A344805F049FE324890ED090A32484C
:101EF00080ED000A28EE080AD0ED000A90ED001AE5
:101F0000F0EE408A40EEC18AF5EEC08AF1EE10FA9A
:101F100004DDB0EE680A08F08BF801E09FED270AB7
:101F2000F0EE409A2648C0ED0A9AB1EE690A80EDBB
:101F30000B0A1B4890ED000A214880ED070A1B4858
:101F4000D0ED010AB0EE600A1D4805F016FE1C48EF
:101F500090ED090A184880ED010A1148D0ED030AF6
:101F6000B0EE600A1749144806F02AF90C4890EDC3
:101F7000021AF0EE410A90ED041AB0EE410A11483F
:101F800006F08EFD00BF77E7400400203333534056
:101F9000000080458FC2F53D2C0500209C050020E7
:101FA0001405002094000020840000208C000020F4
:101FB000CDCC0C3FB40400207400002000000000D1
:101FC000E40400207C00002010B52DED028BB0EE63
:101FD000408AB0EE480AFFF70BFFBDEC028B10BD44
:101FE00010B52DED048BF0EE408AB0EE609AB0EEA5
:101FF000418A364890ED000ADFED350A60EE200A8E
:102000009FED341A80EE810ADFED330A80EE201A4C
:10201000324880ED001A2D4890ED010ADFED2C0AC0
:1020200060EE200A9FED2B1A80EE810ADFED2A0A6E
:1020300080EE201A294880ED011A244890ED020A0A
:10204000DFED230A60EE200A9FED221A80EE810A5E
:10205000DFED210A80EE201A204880ED021A05F0FB
:10206000A5F81F48007F18B904F0FAFD072802D12F
:10207000BDEC048B10BD1B4880ED038A1A48B0EEFE
:10208000480A07F041F919491448FFF7E5FB1849D8
:10209000B0EE480A154805F063FF1648C0ED008A07
:1020A00080ED019A1449B0EE480A06F089F80D480F
:1020B00090ED021AF0EE410A90ED041AB0EE410ADA
:1020C0000D4806F0EDFC00BFD2E700004004002000
:1020D00033335340000080458FC2F53D2C0500206E
:1020E0009C0500201405002094000020840000209E
:1020F0008C000020740000207C00002030B50246D7
:10210000854C8869A04200D000BF00BF92F83C0017
:10211000012801D1022030BD012082F83C0000BF1F
:102120000868092816D91068C0680C780A3C04EBC6
:1021300044050724AC40A0431468E0600C780A3CD6
:1021400004EB44048868A0401468E46820431468E1
:10215000E06013E0106800690C7804EB4405072484
:10216000AC40A043146820610C7804EB44048868F8
:10217000A040146824692043146820611068806BB3
:1021800020F440101468A0631068846B088A401E15
:1021900044EA00501468A0630879C01C0C7C001B42
:1021A00000EB80041F20A0401468A46B84431068D7
:1021B00084630879C01C0C7C001B00EB8004088839
:1021C00080B2A0401468A46B20431468A063524CF2
:1021D0008869A04218D01068806820F470201468C4
:1021E000A060106880688C6920431468A060106843
:1021F000806820F440101468A06010688068CC6982
:1022000020431468A0600BE01068806820F4702000
:102210001468A0601068806820F440101468A06002
:10222000487D30B11068406840F480601468606098
:1022300005E01068406820F4806014686060087DE4
:1022400030B11068406840F480501468606005E068
:102250001068406820F48050146860604868012865
:1022600004D002280FD0032827D119E01068406954
:102270006FF30B001468606110684069CC682043FC
:102280001468606126E0106880696FF30B001468C1
:10229000A06110688069CC6820431468A06119E0CF
:1022A0001068C0696FF30B001468E0611068C069C2
:1022B000CC6820431468E0610CE01068006A6FF39A
:1022C0000B00146820621068006ACC682043146810
:1022D000206200BF00BF114B114C1068A04206D114
:1022E0000868122803D1586840F4800058600C4CEC
:1022F0001068A04209D10868102802D00868112887
:1023000003D1586840F40000586000BF002082F8F4
:102310003C0000BF00BFFEE601000F0000230140AB
:102320000020014010B52DED028B044617492068AE
:10233000884227D1164803F0C9FE154890ED030ADC
:102340009FED141AC0EE010A9FED130A20EE800AD9
:10235000F3EE090A20EE200AB0EE408AB1EE040A3C
:10236000B4EEC08AF1EE10FA09DD9FED0C0AB4EE6E
:10237000C08AF1EE10FA02D2094880ED048A04F016
:1023800081FA00BFBDEC028B10BD000000200140AF
:1023900040040020000080453333534000008C424D
:1023A0001405002008B5024600200090401F136865
:1023B0001860012911D002290BD0032905D0042966
:1023C0000FD11068806C00900CE01068406C009099
:1023D00008E01068006C009004E01068C06B00908A
:1023E00000E000BF00BF009808BD000038B50146FE
:1023F000002000900022002300BF91F83C0001283B
:1024000001D1022038BD012081F83C0000BF0868DE
:10241000806800F00100A0B90868806840F0010001
:102420000D68A86035480068354DB0FBF5F000EB4D
:102430004000009002E00098401E009000980028A4
:10244000F9D10868806800F0010000284BD0086CC2
:1024500042F20105A84340F480500864086C00F47F
:10246000807008B90020486400BF002081F83C005B
:1024700000BF401F0D682860224C606800F01F00FC
:10248000B0B90868806800F4401008B9012000E085
:102490000020024608684068012525EA90230AB317
:1024A00003B30868806840F480000D68A86022E0EB
:1024B0000868806800F4401008B9012000E000209E
:1024C000024608684068012525EA90230E4D0868F9
:1024D000A84210D132B12BB10868806840F4800066
:1024E0000D68A86007E0086C40F010000864486CB4
:1024F00040F001004864002084E700000000002054
:1025000040420F00002301400020014038B5014641
:10251000002000900022002300BF91F83C00012819
:1025200001D1022038BD012081F83C0000BF0868BD
:10253000806800F00100A0B90868806840F00100E0
:102540000D68A86038480068384DB0FBF5F000EB26
:102550004000009002E00098401E00900098002883
:10256000F9D10868806800F00100002851D0086C9B
:1025700042F20105A84340F480500864086C00F45E
:10258000807008B90020486400BF002081F83C003A
:1025900000BF401F0D6828600868406840F0800058
:1025A0000D686860224C606800F01F00B0B90868D0
:1025B000806800F4401008B9012000E000200246C5
:1025C00008684068012525EA90230AB303B3086828
:1025D000806840F480000D68A86022E00868806888
:1025E00000F4401008B9012000E00020024608680D
:1025F0004068012525EA90230E4D0868A84210D1B5
:1026000032B12BB10868806840F480000D68A86082
:1026100007E0086C40F010000864486C40F00100CE
:10262000486400207EE700000000002040420F00C8
:10263000002301400020014010B502460B4600BFB8
:1026400092F83C00012801D1022010BD012082F83F
:102650003C0000BF0F49486820F01F0048604868F0
:102660001C6820434860486820F44040486048683F
:102670005C6820434860486820F47060486048689F
:102680009C682043486000BF002082F83C0000BFE7
:1026900000BFDAE70023014038B502460020009071
:1026A00000BF92F83C00012801D1022038BD012072
:1026B00082F83C0000BF0868092816D91068C06875
:1026C0000C780A3C04EB44050724AC40A043146892
:1026D000E0600C780A3C04EB44048868A04014686D
:1026E000E46820431468E06013E0106800690C7827
:1026F00004EB44050724AC40A043146820610C7827
:1027000004EB44048868A0401468246920431468DA
:1027100020614868072817D21068406B0C79641E46
:1027200004EB84051F24AC40A04314686063088850
:1027300080B20C79641E04EB8404A0401468646BBE
:1027400020431468606331E048680D2817D2106890
:10275000006B0C79E41F04EB84051F24AC40A043FC
:1027600014682063088880B20C79E41F04EB8404A9
:10277000A0401468246B20431468206316E010689E
:10278000C06A0C790D3C04EB84051F24AC40A043C7
:102790001468E062088880B20C790D3C04EB840474
:1027A000A0401468E46A20431468E062194B1A4C94
:1027B0001068A04206D10868122803D1586840F476
:1027C00080005860144C1068A0421CD10868102882
:1027D00002D00868112816D1586840F400005860EB
:1027E000086810280FD10D4800680D4CB0FBF4F0BC
:1027F00000EB80004000009002E00098401E009036
:1028000000980028F9D100BF002082F83C0000BFEA
:1028100000BF4BE7002301400020014000000020E2
:1028200040420F0070477047704770B5044600255E
:10283000002620680068C0F3400520684068C0F3A7
:10284000401695B38EB3206C00F0100018B9206CC0
:1028500040F4007020642068806800F04050E8B9BF
:10286000207ED8B92068C06A00F4700020B12068CA
:10287000806800F4806088B92068406820F02000FB
:1028800021684860206C20F480702064206C00F483
:10289000805018B9206C40F0010020642046FFF7FA
:1028A000C1FF6FF012002168086020680068C0F363
:1028B000800520684068C0F3C016E5B3DEB3206C25
:1028C00000F0100018B9206C40F40050206420681B
:1028D000806800F4401038BB2068806B00F4401022
:1028E00020B12068806800F48060E8B92068406802
:1028F00000F48060C0B92068806800F0405098B94A
:10290000207E88B92068406820F0800021684860F7
:10291000206C20F480502064206C00F4807018B982
:10292000206C40F0010020642046FFF7FBFC6FF0B4
:102930000C00216808602068006800F0010520682C
:102940004068C0F3801685B17EB12068006800F051
:10295000010050B1206C40F480302064204600F02B
:1029600053F86FF001002168086020680068C0F328
:10297000401520684068C0F380667DB176B1606C18
:1029800040F0020060646FF020002168086020467B
:10299000FFF74AFF6FF020002168086070BD00005B
:1029A00070B5044600250CB9012070BD1549A06A18
:1029B000884200D000BF206C30B9204600F025F8D6
:1029C0000020606484F83C00206C00F0100088B99E
:1029D000206C20F4885040F0020020642046FEF76E
:1029E00079FE00206064206C20F0020040F00100BD
:1029F000206400E0012500BF002084F83C0000BFF7
:102A00002846D2E70100000F70477047F8B504462A
:102A10000D4616460020009000BF94F83C000128A7
:102A200001D10220F8BD012084F83C0000BF2068DD
:102A3000806800F00100A0B92068806840F00100C3
:102A400021688860554800685549B0FBF1F000EBFB
:102A50004000009002E00098401E0090009800287E
:102A6000F9D12068806800F48070B0F5807F05D1CE
:102A70002068806820F48070216888602068806801
:102A800000F0010000287ED0206C40F201618843F4
:102A900040F4807020642068406800F4806028B1B1
:102AA000206C20F4005040F480502064206C00F42E
:102AB0008050B0F5805F04D1606C20F00600606447
:102AC00001E00020606400BF002084F83C0000BFEB
:102AD000344F3548A16BC8633448A16B086434484F
:102AE000A16BC8646FF0220021680860206840680C
:102AF00040F08060216848602068806840F4807001
:102B000021688860226802F14C0133462A46A06B96
:102B100000F072FF786800F01F0018BB254920689C
:102B2000884213D024492068884204D1381D0068A7
:102B300000F01F0050B12149206888422BD119486C
:102B4000001D006800F01F00102824D22068806853
:102B500000F04050F8B92068806840F0804021685B
:102B6000886018E013492068884214D12068806882
:102B700000F0405078B92068806840F080402168BB
:102B8000886008E0FFE7206C40F010002064606C73
:102B900040F001006064002044E7000000000020D5
:102BA00040420F000023014009160008A11600084A
:102BB000871600080020014000210140002201404A
:102BC00010B5024692F82030012B01D0022B06D11D
:102BD00010684069084314686061002010BD506AA5
:102BE00040F4802050620120F8E7F0B504460D461D
:102BF0001E4694F8207020688368A86800B900E039
:102C000000BF012F01D0022F7CD103F0806030B9CA
:102C100003F0006018B903F08050002873D0C3F3AC
:102C20000161022905D9606A40F400006062012058
:102C3000F0BD012088403060A86860B9B5F800C0D8
:102C4000E86840EA4C5C206800F5C07000EB0110B9
:102C5000C0F800C00FE0D5E901C040EACC00D5F8CB
:102C60000CC040EA0C00D4F800C00CF5C07C0CEBA2
:102C7000011CCCF80000D5F810C0206800F5C07029
:102C800000EB0110C0F804C0287D01280ED1206897
:102C900000F5C07000EB0110406840F4807C2068B3
:102CA00000F5C07000EB0110C0F804C0D079000638
:102CB00092F806C040EA0C4092F805C040EA0C2C9D
:102CC00010794CEA000C206800F5C07000EB011090
:102CD000C0F80CC0D078000692F802C040EA0C4060
:102CE00092F801C040EA0C2092F800C040EA0C00C3
:102CF000D4F800C00CF5C07C0CEB011CCCF808002B
:102D0000206801E016E00FE000F5C07000EB011054
:102D1000006840F0010C206800F5C07000EB011065
:102D2000C0F800C0002083E7606A40F400106062D1
:102D300001207DE7606A40F480206062012077E72F
:102D4000F0B504460A46216894F82050012D01D0C0
:102D5000022D7ED1424901F50071086840F0010062
:102D60000860086820F47C5008600868566A40EAE9
:102D700006200860107D00F01F06012000FA06F30F
:102D8000C8699843C861A1F50071D069C8B9D1F884
:102D90000C029843C1F80C02908880B2968940EAF0
:102DA000064601F51070576940F83760108880B208
:102DB000168940EA064601F51070576900EBC70016
:102DC0004660D069012819D1D1F80C021843C1F826
:102DD0000C02908880B2168840EA064601F5107011
:102DE000576940F83760908980B2168940EA0646F4
:102DF00001F51070576900EBC7004660906928B96B
:102E0000D1F804029843C1F8040204E0D1F80402A6
:102E10001843C1F80402106928B9D1F81402984384
:102E2000C1F8140204E0D1F814021843C1F81402E6
:102E3000106A012804D1D1F81C021843C1F81C0201
:102E4000D1F8000220F00100C1F800020020F0BD1E
:102E5000FFE7606A40F4802060620120F7E700002D
:102E60000064004070B5054619492868884200D0C2
:102E700070BD284600F038F804461648C46004F4D3
:102E8000007020B113480068401C124908601248C5
:102E9000204020B10F484068401C0E49486004F0B3
:102EA000040080B100200D4908700D48007850B929
:102EB0000C48007838B907488068401C054988608C
:102EC000012007490870284600F0B0FA00BFCFE79C
:102ED0000064004000060020205001000601002090
:102EE00007010020080100200146486A704770B5BC
:102EF000044694F82050012D01D0022D7DD151B906
:102F00002068C06800F0030080B9606A40F40010D7
:102F10006062012070BD2068006900F0030028B9DC
:102F2000606A40F4001060620120F3E7206800F559
:102F3000D87000EB0110006800F004009060906809
:102F400040B9206800F5D87000EB01100068400D12
:102F5000106007E0206800F5D87000EB01100068F1
:102F6000C0085060206800F5D87000EB01100068C0
:102F700000F00200D060206800F5D87000EB01106E
:102F8000406800F00F001061206800F5D87000EB79
:102F90000110406800F47F40000A9061206800F54D
:102FA000D87000EB01104068000C5061206800F5FB
:102FB000D87000EB011080681870206800F5D87098
:102FC00000EB0110806800F47F40000A5870206810
:102FD00000F5D87000EB0110806800F47F00000C51
:102FE0009870206800F5D87000EB01108068000E22
:102FF000D870206800F5D87000E02FE000EB0110D9
:10300000C0681871206800F5D87000EB0110C06826
:1030100000F47F40000A5871206800F5D87000EB7A
:103020000110C06800F47F00000C9871206800F562
:10303000D87000EB0110C068000ED87131B920685B
:10304000C06840F020002668F06005E02068006954
:1030500040F020002668306100205BE7606A40F4A1
:1030600080206062012055E72DE9F05F04460025CD
:10307000206846692068D0F8049020688768206836
:10308000D0F80CA02068D0F810B02068D0F81880D4
:1030900006F00100002855D007F00100C0B1012062
:1030A0002168886007F0020018B1204600F09EFAFF
:1030B0000EE007F0040010B145F4006508E007F0E9
:1030C000080010B145F4805502E0204600F08DFA6A
:1030D00007F48070C8B14FF480702168886007F4ED
:1030E000007018B1204600F083FA0EE007F480600B
:1030F00010B145F4005508E007F4006010B145F444
:10310000804502E0204600F072FA07F48030C8B132
:103110004FF480302168886007F4003018B12046F1
:1031200000F068FA0EE007F4802010B145F4004585
:1031300008E007F4002010B145F4803502E0204695
:1031400000F057FA06F0080038B10AF0100020B17C
:1031500045F4007510202168C86006F0040040B1F5
:103160000AF0080028B108202168C860204600F055
:103170006EF906F0020038B12068C06800F0030064
:1031800010B1204600F064F906F0400038B10BF0B1
:10319000100020B145F4806510202168086106F018
:1031A000200040B10BF0080028B108202168086118
:1031B000204600F0B3F906F0100038B1206800692D
:1031C00000F0030010B1204600F0A9F906F4003029
:1031D00040B109F0100028B1102021684860204655
:1031E00000F09EF906F4803040B109F0080028B1E3
:1031F000082021684860204600F0FDF906F40040F0
:1032000088B309F0040078B306F4807020B108F0A8
:10321000010008B145F0010506F4007020B108F086
:10322000020008B145F0020506F4806020B108F004
:10323000040008B145F0040506F40060A0B108F0F0
:10324000700088B108F07000402817D006DC102804
:103250000BD020280CD0302819D10CE0502810D0E9
:10326000602814D110E01DE019E045F008050FE0DA
:1032700045F010050CE045F0200509E045F040055B
:1032800006E045F0800503E045F4807500E000BFEE
:1032900000BF2068806920F07000216888610420E8
:1032A000216848602DB1606A284360622046FFF7BC
:1032B000D9FDBDE8F09F70B504460CB9012070BD82
:1032C00094F8200010B9204600F0AFF8206800689C
:1032D00020F002002168086000F030FD05460DE096
:1032E00000F02CFD401B0A2808D9606A40F4003029
:1032F0006062052084F820000120E0E72068406833
:1033000000F002000028EBD12068006840F00100C6
:103310002168086000F012FD05460DE000F00EFD8A
:10332000401B0A2808D9606A40F40030606205201A
:1033300084F820000120C2E72068406800F0010006
:103340000028EBD0207E012806D12068006840F0DC
:1033500080002168086005E02068006820F0800097
:1033600021680860607E012806D12068006840F06E
:1033700040002168086005E02068006820F04000F7
:1033800021680860A07E012806D12068006840F00E
:1033900020002168086005E02068006820F0200017
:1033A00021680860E07E012806D12068006820F0CE
:1033B00010002168086005E02068006840F01000F7
:1033C00021680860207F012806D12068006840F04D
:1033D00008002168086005E02068006820F0080007
:1033E00021680860607F012806D12068006840F0ED
:1033F00004002168086005E02068006820F00400EF
:1034000021680860D4E90201084321690843616921
:1034100008436168491E08432168C8610020606252
:10342000012084F82000002049E770470146002071
:1034300091F82020012A01D0022A02D100234B62F8
:1034400004E04B6A43F480234B62012070477047CD
:1034500030B589B005462C492868884206D16B46AC
:1034600002AA00212846FFF742FD30B12748006834
:10347000401C2649086009B030BD049868B9059819
:1034800058B90698022808D140F2011102988842E2
:1034900009D00298B0F5817F05D01C480068401C17
:1034A0001A490860E7E71A480078401C00F0030456
:1034B00018480078844205D114480068401C13491C
:1034C0000860D8E71449124A1278029821F82200BD
:1034D0009DF800000E4A127801EB820188709DF879
:1034E00001100D480A4A127800EB8200C17000BF3B
:1034F00000BF00BFBFF35F8F00BF00BF00BF044825
:10350000047000BFB7E70000006400400006002020
:103510000401002005010020F005002070477047DD
:10352000704770B5044694F82000012822D102208B
:1035300084F820002068006820F0010021680860FD
:1035400000F0FCFB05460DE000F0F8FB401B0A28EC
:1035500008D9606A40F400306062052084F82000D9
:10356000012070BD2068406800F001000028EBD108
:103570006062F6E7606A40F4002060620120F0E7D4
:1035800070B5044694F82000022828D1206800680D
:1035900040F001002168086000F0D0FB05460DE016
:1035A00000F0CCFB401B0A2808D9606A40F40030C8
:1035B0006062052084F82000012070BD206840680A
:1035C00000F001000028EBD02068006820F0020025
:1035D00021680860012084F820000020EDE7606A7F
:1035E00040F4801060620120E7E770477047704741
:1035F000704770477047704770B50446A56D00F07E
:103600009DFB064694F83500022808D080206065AE
:1036100000BF002084F8340000BF012070BD206886
:10362000006820F01600216808602068406920F0DA
:10363000800021684861206C08B9A06C28B120681E
:10364000006820F00800216808602068006820F009
:103650000100216808600FE000F070FB801B052866
:103660000AD92020606500BF002084F8340000BF24
:10367000032084F83500D1E72068006800F00100DD
:103680000028E9D194F85C103F208840A86000BF72
:10369000002084F8340000BF012084F835000020A9
:1036A000BCE7014691F83500022803D08020486528
:1036B00001207047052081F835000868006820F077
:1036C00001000A6810600020F3E70000F8B5044626
:1036D000002000908C4800684FF41651B0FBF1F7C1
:1036E000A56D2E6894F85C1008208840304098B191
:1036F0002068006800F0040070B12068006820F0C5
:1037000004002168086094F85C1008208840A860D4
:10371000606D40F00100606594F85C100120884005
:10372000304068B12068406900F0800040B194F8F2
:103730005C1001208840A860606D40F00200606568
:1037400094F85C1004208840304068B1206800681C
:1037500000F0020040B194F85C1004208840A8609A
:10376000606D40F00400606594F85C1010208840A3
:10377000304078B32068006800F0080050B394F837
:103780005C1010208840A8602068006800F4802049
:1037900080B12068006800F4002028B9206CC8B10E
:1037A0002046216C884715E0A06C98B12046A16C9A
:1037B00088470FE02068006800F4807028B920680E
:1037C000006820F0080021680860206C10B12046D5
:1037D000216C884794F85C102020884030400028F5
:1037E00065D02068006800F0100000285FD094F8D1
:1037F0005C1020208840A86094F83500052828D166
:103800002068006820F01600216808602068406980
:1038100020F0800021684861206C08B9A06C28B1B4
:103820002068006820F008002168086094F85C10A7
:103830003F208840A86000BF002084F8340000BF0B
:10384000012084F83500206D10B12046216D884795
:10385000F8BD2068006800F4802080B1206800680E
:1038600000F4002028B9606C10B12046616C8847D4
:103870001DE0E06BD8B12046E16B884717E0206877
:10388000006800F4807068B92068006820F01000BB
:103890002168086000BF002084F8340000BF0120C8
:1038A00084F83500E06B10B12046E16B8847606D0D
:1038B00038B3606D00F00100F0B1052084F83500E8
:1038C0002068006820F001002168086000BF0098AF
:1038D000401C0090B84200D905E02068006800F064
:1038E00001000028F3D100BF00BF002084F834009D
:1038F00000BF012084F83500E06C10B12046E16C77
:10390000884700BFA4E70000000000202DE9F04137
:103910000446002500F012FA074614B90120BDE85C
:10392000F081606A00B100BF00BF002084F834005D
:1039300000BF022084F835002068006820F00100F4
:10394000216808600AE000F0F9F9C01B052805D9D4
:1039500020206065032084F83500E0E720680068D7
:1039600000F001000028EED12068056821480540DC
:10397000D4E901010843E16808432169084361690A
:103980000843A1690843E1690843216A08430543E4
:10399000606A042803D1D4E90B0108430543206879
:1039A00005602068456925F00705606A0543606A7F
:1039B00004280DD1A06A0543E06A48B12046FDF70E
:1039C000A9FF28B140206065012084F83500A6E7F2
:1039D000206845612046FDF783FF064694F85C1099
:1039E0003F208840B06000206065012084F83500E9
:1039F000002094E73F8010F02DE9F04704460D4683
:103A000016461F464FF00008D4F8589000BF94F8AF
:103A10003400012802D10220BDE8F087012084F89B
:103A2000340000BF94F83500012825D1022084F825
:103A30003500002060653B46324629462046FDF7AA
:103A4000BEFF94F85C103F208840C9F80800206849
:103A5000006840F0160021680860206C28B12068DA
:103A6000006840F00800216808602068006840F0A5
:103A700001002168086006E000BF002084F83400DF
:103A800000BF4FF002084046C6E710B50446A0B29A
:103A900006F0CAFB10BD000010B50446402C19D139
:103AA0000D480078B0B90D480068406A0C490860BC
:103AB00000200C4908600A4800680B4908609FED27
:103AC0000B0A0B4880ED000A0120034908701720FB
:103AD00000F086F910BD00004C000020C00200205C
:103AE000400000203C0000203800002000000000C2
:103AF0004400002010B5044604480068204020B16E
:103B0000024804602046FFF7C7FF10BD143C014087
:103B1000F8B502460B460025002400200021DEE017
:103B2000012606FA01F51E6806EA0504AC4275D1C5
:103B30001E7906F00306012E04D01E7906F0030656
:103B4000022E13D190684F000326BE40B0434F00B1
:103B5000DE68BE4030439060506801268E40B0431E
:103B60001E79C6F300168E40304350601E7906F071
:103B70000306032E09D0D0684F000326BE40B04391
:103B80004F009E68BE403043D0601E7906F00306A9
:103B9000022E13D1CF0802F1200656F827004E0757
:103BA000F70E0F26BE40B0434F07FF0E1E69BE4002
:103BB0003043CF0802F1200646F8270010684F0076
:103BC0000326BE40B0431E7906F003064F00BE40F8
:103BD000304310605E6806F08056B6F1805F7DD19C
:103BE00000BF00260096404E366846F480463E4FA1
:103BF0003E603E46366806F48046009600BF00BF31
:103C00003A4E8F0856F827008E07370F0F26BE4012
:103C1000B043374EB24202D1002624E05EE0354E7A
:103C2000B24201D101261EE0334EB24201D102263A
:103C300019E0324EB24201D1032614E0304EB242B6
:103C400001D104260FE02F4EB24201D105260AE031
:103C50002D4EB24201D1062605E02C4EB24201D1D2
:103C6000072600E008268F073F0FBE4030431F4E57
:103C70008F0846F82700264E3068A0435E6806F499
:103C80008036B6F5803F00D12043214E3060361D8E
:103C90003068A0435E6806F40036B6F5003F00D1F8
:103CA00020431B4E361D3060361D3068A0435E68D1
:103CB00006F48016B6F5801F00D12043144E083656
:103CC0003060361D3068A0435E6806F40016B6F515
:103CD000001F00D120430E4E0C363060491C1029C5
:103CE000FFF41EAFF8BD0000443802400838014020
:103CF000000002400004024000080240000C0240A4
:103D0000001002400014024000180240001C024053
:103D1000003C0140024613690B400BB1012000E05A
:103D2000002070470AB1816101E00B048361704794
:103D300001480068000C7047002004E0014800685A
:103D4000704700001000002003480068034909780C
:103D50000844014908607047100000201800002046
:103D600010B50A48006840F4007008490860084629
:103D7000006840F480600860052000F0A1F80F2082
:103D800000F006F800F02AF8002010BD003C0240C8
:103D900070B504460E4800784FF47A71B1FBF0F02C
:103DA0000C490968B1FBF0F5284600F03FFC08B16A
:103DB000012070BD102C07D200222146501E00F0B9
:103DC00041F80548046001E00120F2E70020F0E737
:103DD00018000020000000201400002070470000A0
:103DE00010B501460846002817DB00F01F0301222A
:103DF0009A400B4B440943F8242000BF00BF00BF8A
:103E0000BFF34F8F00BF00BF00BF00BF00BF00BFA8
:103E1000BFF36F8F00BF00BF00BF00BF10BD000029
:103E200080E100E001460846002809DB00F01F039E
:103E300001229A4043099B0003F1E023C3F80021CB
:103E400000BF70472DE9F05F80460D4616460027FB
:103E500005F008FD074639462A46334601F00700BB
:103E6000C0F1070ABAF1040F02D94FF0040A01E0C9
:103E7000C0F1070AD14600F1040ABAF1070F02D2D5
:103E80004FF0000A01E0A0F1030AD4464FF0010A06
:103E90000AFA09FAAAF1010A0AEA020A0AFA0CFA6B
:103EA0004FF0010B0BFA0CFBABF1010B0BEA030B10
:103EB0004AEA0B042146404605F0DCFCBDE8F09FD1
:103EC00000BF00F00702064B19684FF6FF031940C8
:103ED000044B0B4343EA0221014B196000BF7047BA
:103EE0000CED00E00000FA0570B504460D460CB973
:103EF000012070BD5848006800F00700A84209D2B0
:103F000055490D700846006800F00700A84201D02E
:103F10000120EEE7207800F0020002281DD1207871
:103F200000F00400042805D14C48006840F4E0503B
:103F30004A490860207800F00800082805D1474861
:103F4000006840F46040454908604448006820F03B
:103F5000F000A168084341490860207800F00100A2
:103F6000A8B36068012807D13C4808380068C0F34E
:103F70004040B8B90120BCE76068022802D0606800
:103F8000032807D1354808380068C0F3406048B9B5
:103F90000120AEE7314808380068C0F3400008B996
:103FA0000120A6E72D48006820F00300616808435F
:103FB0002A490860FFF7C2FE064609E0FFF7BEFE89
:103FC000801B41F28831884202D9032091E707E043
:103FD0002248006800F00C006168B0EB810FEDD161
:103FE0001D48006800F00700A84209D91A490D7061
:103FF0000846006800F00700A84201D0012078E7D9
:10400000207800F00400042807D11448006820F448
:10401000E050E168084311490860207800F008008A
:10402000082808D10D48006820F46040216940EA62
:10403000C1000A49086000F03FF808490968C1F367
:104040000311074A515CC8400649086006480068E9
:10405000FFF79EFE00204CE7003C0240083802407B
:104060005CAB00080000002014000020014800683C
:10407000704700000000002000B5FFF7F7FF04497B
:104080000968C1F38221034A515CC84000BD0000A9
:10409000083802406CAB000800B5FFF7E7FF0449A1
:1040A0000968C1F34231034A515CC84000BD0000B9
:1040B000083802406CAB00082DE9F04700240025C9
:1040C0000026A1462548006800F00C0020B1042815
:1040D00005D008283AD105E0DFF8849039E0DFF810
:1040E000849036E01D48001F006800F03F041B4824
:1040F000001F006800F4800078B11A481749091FB2
:104100000968C1F38811A0FB017001462246002313
:104110003846FCF7C2F805460EE011480F49091F62
:104120000968C1F38811A0FB0170014622460023F3
:104130003846FCF7B2F805460848001F0068C0F38F
:104140000140401C4600B5FBF6F902E0DFF8109094
:1041500000BF00BF4846BDE8F087000008380240B5
:104160000024F40000127A00F8B504460CB90120CE
:10417000F8BD207800F00100002874D0F9480068EC
:1041800000F00C0004280DD0F648006800F00C0088
:10419000082813D1F348001F006800F48000B0F530
:1041A000800F0BD1EF4808380068C0F3404000286A
:1041B00059D06068002856D10120D9E700BF606857
:1041C000B0F5803F08D1E7480838006840F48030F7
:1041D000E449083908601EE06068B0F5A02F0DD1F1
:1041E000E0480838006840F48020DE49083908605B
:1041F0000846006840F4803008600CE0D948083870
:10420000006820F48030D749083908600846006803
:1042100020F48020086000BF606890B1FFF78EFD39
:10422000054606E0FFF78AFD401B642801D90320FC
:104230009EE7CC4808380068C0F340400028F1D021
:1042400011E0FFF77BFD054606E0FFF777FD401B19
:10425000642801D903208BE7C24808380068C0F3FE
:1042600040400028F1D1207800F0020002285FD100
:10427000BC48006800F00C0058B1BA48006800F073
:104280000C0008281CD1B748001F006800F480000B
:10429000B0B9B44808380068C0F3400020B1E06805
:1042A000012801D0012063E7AE480838006820F0FB
:1042B000F800216940EAC100AA490839086037E0DE
:1042C000E06800B30120A8490860FFF737FD054604
:1042D00006E0FFF733FD401B022801D9032047E722
:1042E000A04808380068C0F340000028F1D09D487D
:1042F0000838006820F0F800216940EAC1009949B7
:104300000839086014E0002097490860FFF716FD9F
:10431000054606E0FFF712FD401B022801D90320E5
:1043200026E7904808380068C0F340000028F1D123
:10433000207800F0080008282CD16069A8B101207D
:104340008A490860FFF7FAFC054606E0FFF7F6FC2D
:10435000401B022801D903200AE782486C3000681C
:10436000C0F340000028F1D014E000207F4908602D
:10437000FFF7E4FC054606E0FFF7E0FC401B0228DF
:1043800001D90320F4E677486C300068C0F34000A0
:104390000028F1D1207800F00400042870D1002713
:1043A00070483830006800F0805090B900BF00209D
:1043B00000906C483830006840F0805069493831CE
:1043C00008600846006800F08050009000BF00BF01
:1043D00001276748006800F48070B0B9644800683D
:1043E00040F4807062490860FFF7A8FC054606E0CB
:1043F000FFF7A4FC401B022801D90320B8E65C4863
:10440000006800F480700028F2D000BFA068012886
:1044100008D154486830006840F0010051496831C3
:1044200008601DE0A06805280DD14E48683000687E
:1044300040F004004B49683108600846006840F0CD
:10444000010008600CE047486830006820F0010077
:104450004449683108600846006820F0040008609C
:1044600000BFA068A8B1FFF769FC054609E0FFF7A7
:1044700065FC401B41F28831884202D9032077E66F
:1044800026E0384868300068C0F340000028EED0CD
:1044900013E0FFF753FC054608E0FFF74FFC401B15
:1044A00041F28831884201D9032061E62D48683005
:1044B0000068C0F340000028EFD1012F07D1294840
:1044C0003830006820F0805026493831086000BF3D
:1044D000A069002845D02348006800F00C00082897
:1044E0005DD0A069022845D100201F490866FFF76A
:1044F00025FC054606E0FFF721FC401B022801D9F8
:10450000032035E6174808380068C0F340600028EB
:10451000F1D1D4E907010843616A40EA811101221F
:10452000A06AC2EB500041EA00412C20005D41EA44
:1045300000600C49091F086001200B490866FFF75D
:10454000FDFB054606E0FFF7F9FB401B022801D9F9
:1045500003200DE6034808380068C0F340600028D7
:10456000F1D049E00838024000004742800E47423F
:1045700000700040002021490866FFF7DFFB054678
:1045800006E0FFF7DBFB401B022801D90320EFE523
:104590001B480068C0F340600028F2D12CE0A069FD
:1045A000012800D1E4E51648001D0668A06901282D
:1045B00020D006F48001E06981421BD106F03F0162
:1045C000206A814216D147F6C0703040616AB0EB74
:1045D000811F0FD106F440310122A06AC2EB5000C6
:1045E000B1EB004F06D106F070612C20005DB1EBFD
:1045F000006F01D00120BBE50020B9E50000474273
:1046000000380240042808D14FF0E021096941F048
:1046100004014FF0E022116107E04FF0E021096949
:1046200021F004014FF0E0221161704770B504469B
:104630002546681EB0F1807F01D301200FE0681E7F
:104640004FF0E02148610F214FF0FF3005F012F9E3
:1046500000204FF0E021886107200861002070BD34
:104660007047704710B50346002200BF93F83C0026
:10467000012801D1022010BD012083F83C0000BFB9
:1046800022F0FF00CC6840EA040222F440708C68FB
:1046900040EA040222F480604C6840EA040222F4FA
:1046A00000600C6840EA040222F480500C6940EA81
:1046B000040222F400504C6940EA040222F48040D3
:1046C000CC6940EA04021868426400BF002083F805
:1046D0003C0000BF00BFCEE730B502460B4600BF2E
:1046E00092F83C00012801D1022030BD012082F85F
:1046F0003C0000BF022082F83D001068446810684A
:10470000816824F070041868044310684460184DF0
:104710001068A8421BD01068B0F1804F17D0154D1B
:104720001068A84213D0144D1068A8420FD0134D42
:104730001068A8420BD0124D1068A84207D0114D46
:104740001068A84203D0104D1068A84205D121F08E
:1047500080015868014310688160012082F83D00A3
:1047600000BF002082F83C0000BF00BFBDE7000092
:10477000000001400004004000080040000C004020
:1047800000040140004001400018004070B504469C
:104790000D4615B994F842000BE0042D02D14320D8
:1047A000005D06E0082D02D14420005D01E04520B7
:1047B000005D012801D0012070BD1DB9022084F8E0
:1047C00042000EE0042D03D102214320015508E0F0
:1047D000082D03D102214420015502E00221452089
:1047E000015504222946206804F0A1FC2068406C91
:1047F00040F40040216848641A49206888421BD070
:104800002068B0F1804F17D017492068884213D034
:104810001649206888420FD01549206888420BD07D
:1048200014492068884207D013492068884203D081
:104830001249206888420CD12068806800F0070681
:10484000062E0CD02068006840F001002168086046
:1048500005E02068006840F0010021680860002041
:10486000AAE70000000001400004004000080040EA
:10487000000C0040000401400040014000180040CE
:1048800070B504460D4600222946206804F04FFC0E
:1048900000BF2068006A41F21111084050B9206839
:1048A000006A8910084028B92068406C20F4004054
:1048B0002168486400BF00BF2068006A41F21111FE
:1048C000084050B92068006A8910084028B920685B
:1048D000006820F001002168086000BF1DB90120B8
:1048E00084F842000EE0042D03D10121432001553C
:1048F00008E0082D03D101214420015502E00121E7
:1049000045200155002070BD10B504460CB90120AA
:1049100010BD94F83D0028B9002084F83C002046E2
:1049200000F025F8022084F83D00211D206804F0E5
:1049300081FB012084F8460000BF84F83E0001217D
:104940003F200155402001554120015500BF00BFC7
:10495000012084F8420043200155442001554520A0
:10496000015500BF012084F83D000020D0E77047CA
:10497000014691F83D00012801D001207047022036
:1049800081F83D000868C06840F001000B68D860FD
:104990001A4B086898421BD00868B0F1804F17D0B6
:1049A000174B0868984213D0164B086898420FD0EE
:1049B000154B086898420BD0144B0868984207D0F2
:1049C000134B0868984203D0124B086898420CD1E8
:1049D0000868806800F00702062A0CD008680068A2
:1049E00040F001000B68186005E00868006840F0BE
:1049F00001000B6818600020C0E7000000000140C3
:104A00000004004000080040000C00400004014089
:104A100000400140001800402DE9F04104460D46D9
:104A200014B90120BDE8F08194F83D0028B90020B8
:104A300084F83C00204600F053F8022084F83D0042
:104A40002068806844F20701884321688860211D3E
:104A5000206804F0EFFA2068D0F8088020688669A2
:104A60002068076A286840EA080840F20330864355
:104A7000A969A86840EA0120064340F60C40864335
:104A80004FF2F0008643E969E86840EA01200643F6
:104A900028690001296A40EA0130064327F022070D
:104AA00027F088076969686840EA011007432068B1
:104AB000C0F808802068866120680762012084F8B9
:104AC000460084F83E0001213F200155012084F872
:104AD000420043200155012084F83D000020A1E759
:104AE000704770472DE9F04104460D4615B994F81A
:104AF0003E000BE0042D02D13F20005D06E0082DB2
:104B000002D14020005D01E04120005D074615B95B
:104B100094F842000BE0042D02D14320005D06E032
:104B2000082D02D14420005D01E04520005D804653
:104B3000012F02D1B8F1010F02D00120BDE8F081B0
:104B40001DB9022084F83E000EE0042D03D102219D
:104B50003F20015508E0082D03D1022140200155D6
:104B600002E00221412001551DB9022084F84200D3
:104B70000EE0042D03D102214320015508E0082D49
:104B800003D102214420015502E0022145200155B4
:104B900001222946206804F0B9FA1A49206888429F
:104BA0001BD02068B0F1804F17D017492068884289
:104BB00013D01649206888420FD0154920688842D2
:104BC0000BD014492068884207D0134920688842D6
:104BD00003D01249206888420CD12068806800F018
:104BE0000706062E0CD02068006840F001002168FE
:104BF000086005E02068006840F001002168086056
:104C000000209BE700000140000400400008004035
:104C1000000C00400004014000400140001800402A
:104C200010B5044620680069C0F34000D8B1206880
:104C3000C068C0F34000B0B16FF0020021680861A5
:104C4000012020772068806900F0030018B1204619
:104C5000FFF747FF05E0204600F0ADF8204600F0E2
:104C600063F90020207720680069C0F38000D8B184
:104C70002068C068C0F38000B0B16FF00400216804
:104C80000861022020772068806900F4407018B124
:104C90002046FFF726FF05E0204600F08CF820466E
:104CA00000F042F90020207720680069C0F3C000BE
:104CB000D8B12068C068C0F3C000B0B16FF0080080
:104CC00021680861042020772068C06900F0030093
:104CD00018B12046FFF705FF05E0204600F06BF80D
:104CE000204600F021F90020207720680069C0F3F9
:104CF0000010D8B12068C068C0F30010B0B16FF0E8
:104D0000100021680861082020772068C06900F43D
:104D1000407018B12046FFF7E4FE05E0204600F0A1
:104D20004AF8204600F000F900202077206800694A
:104D300000F0010058B12068C06800F0010030B1F7
:104D40006FF0010021680861204600F0C9F9206871
:104D50000069C0F3C01058B12068C068C0F3C0102B
:104D600030B16FF08000216808612046FFF778FCC1
:104D700020680069C0F3801058B12068C068C0F393
:104D8000801030B16FF0400021680861204600F0CB
:104D90006DFA20680069C0F3401058B12068C068FF
:104DA000C0F3401030B16FF0200021680861204648
:104DB000FFF757FC10BD704770B504460D46164608
:104DC00000BF94F83C00012801D1022070BD0120F1
:104DD00084F83C0000BF022084F83D0036B1042E68
:104DE0001BD0082E31D00C2E5ED145E0294620681C
:104DF00004F0AEF92068806940F0080021688861FD
:104E00002068806920F0040021688861206880693A
:104E1000296908432168886147E02946206804F031
:104E2000CFF92068806940F40060216888612068BB
:104E3000806920F480602168886120688069296920
:104E400040EA0120216888612FE02946206804F0AB
:104E5000F5F92068C06940F008002168C861206841
:104E6000C06920F004002168C8612068C069296910
:104E700008432168C86118E02946206804F01AFA3E
:104E80002068C06940F400602168C8612068C0697A
:104E900020F480602168C8612068C069296940EAFF
:104EA00001202168C86100E000BF00BF012084F834
:104EB0003D0000BF002084F83C0000BF00BF85E734
:104EC00010B504460CB9012010BD94F83D0028B976
:104ED000002084F83C00204600F025F8022084F8E9
:104EE0003D00211D206804F0A5F8012084F846004B
:104EF00000BF84F83E0001213F20015540200155AC
:104F00004120015500BF00BF012084F8420043202A
:104F10000155442001554520015500BF012084F86A
:104F20003D000020D0E770477047000070B5044690
:104F30000D4615B994F83E000BE0042D02D13F2038
:104F4000005D06E0082D02D14020005D01E0412017
:104F5000005D012801D0012070BD1DB9022084F838
:104F60003E000EE0042D03D102213F20015508E050
:104F7000082D03D102214020015502E002214120E9
:104F8000015501222946206804F0C0F82349206811
:104F9000884203D022492068884201D1012000E0E4
:104FA000002028B12068406C40F40040216848642B
:104FB0001A49206888421BD02068B0F1804F17D072
:104FC00018492068884213D01749206888420FD0BA
:104FD0001649206888420BD011492068884207D0C2
:104FE00013492068884203D01249206888420CD1B6
:104FF0002068806800F00706062E0CD02068006844
:1050000040F001002168086005E02068006840F079
:1050100001002168086000209EE7000000000140B8
:10502000000401400004004000080040000C004063
:10503000004001400018004030B504460D460022F3
:105040002946206804F062F823492068884203D08A
:1050500022492068884201D1012000E0002090B15F
:1050600000BF2068006A41F21111084050B9206861
:10507000006A8910084028B92068406C20F400407C
:105080002168486400BF00BF2068006A41F2111126
:10509000084050B92068006A8910084028B9206883
:1050A000006820F001002168086000BF1DB90120E0
:1050B00084F83E000EE0042D03D101213F2001556C
:1050C00008E0082D03D101214020015502E0012113
:1050D00041200155002030BD000001400004014086
:1050E0002DE9F0472DED028B064653493068884282
:1050F00075D1FCF7BBFC51480078401C4F49087043
:105100000846007805286BD300200870FCF7DAFD0C
:10511000DFED4B0A80EE201A9FED4A0A21EE000ACD
:10512000494880ED000A01F09BFD0446052C01D0A2
:10513000062C02D102F0BCF905E0444890ED000ACB
:10514000434880ED000A424890ED000AB5EEC00ADF
:10515000F1EE10FA03DD01203E4908750AE03C48F3
:1051600090ED000AB5EEC00AF1EE10FA02D200206E
:105170003849087501F074FD0446374890ED038AFC
:1051800090F8507090F85180062C1BD1D7B1B8F12F
:10519000000F17D018EE100A20F00041C1F1FF41B6
:1051A000C90F79B918EE100A4FF07F41B1EB400FEB
:1051B00001D1012100E0002121B9284880ED008AB9
:1051C000012506E0204890ED000A244880ED000A01
:1051D000002523480078854203D0012002E027E023
:1051E00024E0002081461E480570052C01D0062CC5
:1051F0001BD1174890ED000A1A4880ED070AB9F153
:10520000000F04D0154890ED000A02F00DF99FED53
:10521000160A104880ED010A104890ED000A114866
:1052200002F0ABFC0B4880ED000A00BF01F0DEFE8F
:10523000BDEC028BBDE8F08700100040310000207B
:10524000DB0FC94000007042200000202800002031
:105250002C00002014050020480500202400002018
:105260003000002054040020000000007047704708
:10527000704701460022002391F83D2091F83E300E
:1052800042EA0300704700002DE9F84F0446206809
:1052900005682068C668206847694FF00009CA465B
:1052A00005F00F09B9F1000F0AD105F0200038B15F
:1052B00006F0200020B1204604F070F8BDE8F88F19
:1052C000B9F1000F72D007F0010018B906F4907020
:1052D00000286BD005F0010030B106F4807018B1E1
:1052E000206C40F00100206405F0040030B107F0AC
:1052F000010018B1206C40F00200206405F00200AB
:1053000030B107F0010018B1206C40F004002064B7
:1053100005F0080048B106F0200010B907F00100C0
:1053200018B1206C40F008002064206C70B305F0C8
:10533000200028B106F0200010B1204604F02EF81D
:1053400020684069C0F3801A206C00F0080010B992
:10535000BAF1000F23D0204603F0F5FF2068406922
:1053600000F04000402816D12068406920F040003D
:1053700021684861A06B50B15648A16B0865A06BCD
:10538000FEF78FF910B1A06B016D88470CE0204645
:10539000FFF76EFF08E02046FFF76AFF04E02046B3
:1053A000FFF766FF0020206488E7FFE7206B0128F5
:1053B00079D105F01000002875D006F01000002803
:1053C00071D000BF00200090206800680090206825
:1053D0004068009000BF00BF2068406900F04000B6
:1053E000402839D1A06B006840681FFA80F8B8F1F6
:1053F000000F30D0A08D40452DDDA4F82E80A06B8D
:10540000C069B0F5807F1FD02068C06820F480702C
:105410002168C8602068406920F001002168486167
:105420002068406920F0400021684861202084F80D
:105430003E00002020632068C06820F01000216832
:10544000C860A06BFEF7D8F8A08DE28D801A81B2FB
:105450002046FFF70CFF31E7A08DE18D401A1FFABF
:1054600080F8E08DE8B1B8F1000F1AD02068C0686C
:1054700020F490702168C8602068406920F0010025
:1054800021684861202084F83E00002020632068C5
:10549000C06820F010002168C86041462046FFF730
:1054A000E6FE0BE7FFE705F0800030B106F0800074
:1054B00018B1204604F00BF900E705F0400030B1C8
:1054C00006F0400018B1204603F058FFF6E600BF92
:1054D000F4E600003393000810B504460CB901202F
:1054E00010BDA06900B100E000BF94F83D0028B9EC
:1054F000002084F83C00204600F028F8242084F89E
:105500003D002068C06820F400502168C860204633
:1055100003F0A4FF2068006920F49040216808612E
:105520002068406920F02A00216848612068C0682E
:1055300040F400502168C86000202064202084F8D6
:105540003D0084F83E000020CAE7000010B586B098
:1055500004462D492068884254D100BF00BF002076
:1055600000902A48006840F010002849086008466A
:10557000006800F01000009000BF00BF00BF00BF37
:1055800000BF0020009021481438006840F002005D
:105590001E49143908600846006800F002000090B7
:1055A00000BF00BF00BF00BF00BF00200090084642
:1055B000006840F0020008600846006800F0020041
:1055C000009000BF00BF00BF402001900220029069
:1055D00001200390022004900720059001A90C48A7
:1055E000FEF796FA802001900720059001A908484F
:1055F000FEF78EFA2520FEF715FC03221146252022
:10560000FEF720FC06B010BD0010014044380240F7
:105610000004024070B504460D46164694F83E005C
:10562000202816D105B10EB9012070BD00BF94F835
:105630003C00012801D10220F7E7012084F83C005A
:1056400000BF0020206332462946204604F01CF8A3
:10565000EBE70220E9E700001D4A0168914236D1DC
:105660001C49098801F4004189BB1A49098801F4E1
:10567000804171B1184909780A2903D00021154ADF
:10568000118024E01349098841F40041114A118036
:105690001DE0114909780D2906D10E49098841F408
:1056A00080410C4A118012E00B490978094A12889E
:1056B000C2F30D02094B995406490988491C054A51
:1056C000118011460988C72901DD0021118070472A
:1056D000001001400C0000200E00002024010020DA
:1056E0007047000070B504462448007800B970BDCA
:1056F0002348007870B923480068201AB0F5FA7F73
:1057000008D99FED210A01F045FE01201C490870CF
:105710001E4804601A48007800B9E8E701F0A0FAD2
:105720000546052D01D0062D1ED1194890ED000A21
:10573000B0EEC00AF6EE000AB4EEE00AF1EE10FA9E
:105740000BDC144890ED000AB0EEC00AF3EE0E0A2E
:10575000B4EEE00AF1EE10FA06DD0C480068201AFB
:10576000B0F5FA5F00D2C2E703F034FC0020034931
:1057700008700349087000BFB9E700000A01002063
:105780000B0100200C01002000000000100100208F
:105790002C0000202000002000BFFEE710B59FED88
:1057A0001B0A1B4880ED000A9FED1A0A1A4880ED7B
:1057B000000A9FED1A0A1A4880ED000A9FED190AA7
:1057C000194880ED000AFAEE002AB2EE002ADFED59
:1057D000171A9FED171AD0ED000A114890ED000A34
:1057E000144802F025FAFAEE002AB2EE002ADFEDA4
:1057F0000F1A9FED0F1A0C48D0ED000A084890EDE3
:10580000000A0D4802F014FA10BD00003D0A973E50
:105810009C000020DA03AD39A00000206ABC843F60
:105820006C0000207FD9BD3D70000020CDCC4C3EE7
:1058300000000000B4040020E404002010B5044679
:10584000FFF7ACFF094890ED000A094880ED010A16
:10585000084890ED000A064880ED020A44700520D1
:105860000349087000F03CFA10BD00009C000020C5
:10587000BC050020A000002010B52DED068B6F4860
:10588000007800F0010010B9B7EE000A01E0BFEEA9
:10589000000AF0EE409AB7EE000A69EE808A684886
:1058A000007830B167480088032802D2B0EE680A59
:1058B00001E09FED650AB0EE40AA9FED631ADFEDAF
:1058C000620AB0EE4A0AFCF78BFB00F0B7F910B998
:1058D000BDEC068B10BD5A48007818BB59480088AB
:1058E000401C5849088008460088322812D357487F
:1058F00090ED000AB0EEC00ADFED550AB4EEE00A02
:10590000F1EE10FA06D801204D49087000204D49EB
:10591000088006E04B480088C82802D30620FFF71D
:105920008DFFD5E74748008828B9484890ED000A20
:10593000484880ED000A43480088032805D24148C2
:105940000088401C3F490880C2E7404890ED000AAB
:105950004048D0ED000A30EE600AB0EE409A3B4875
:1059600090ED000A3B48D0ED000A30EE200AF6EE3A
:10597000000A20EE200AF0EE40AAB0EEC90ADFEDE0
:10598000360AB4EEE00AF1EE10FA03D20620FFF771
:1059900055FF9DE73148D0ED010AB0EE680A00EEF0
:1059A000EA0ADFED2F0A20EE200A80EE098A18EEBF
:1059B000100A03F048FF20B918EE100A03F021FF87
:1059C00018B10620FFF73AFF82E7264890ED000A5B
:1059D00030EE080A80ED000A00BF18480078401C2D
:1059E00016490870002016490870164908801348A7
:1059F000007808281FD31B4890ED000AF2EE000A39
:105A000080EE201AB0EE418A9FED171ADFED170ADB
:105A1000B0EE480A00F0E0F918B90720FFF70EFFD2
:105A200008E00E48D0ED010AB0EE600AF0EE480A38
:105A300000F06CF900BF00BF4AE70000E30000205F
:105A4000E4000020E6000020000000008C000020A0
:105A50009A99193E00010020CDCC4C3DBC05002098
:105A600051499D39FC0000200AD7233CACC527379B
:105A700010B52DED028B61486149097800EB81007A
:105A800090ED000AF0EE408A5E48C0ED018A9FED7D
:105A90005E0A80ED000A9FED5C0AFCF795FA00F0C3
:105AA000CDF810B9BDEC028B10BD58480088401CE1
:105AB00056490880564890ED000A30EE680AB0EE6C
:105AC000C00ADFED540AB4EEE00AF1EE10FA2ED867
:105AD00090ED010AB0EEC00ADFED4E0AB4EEE00A26
